:020000040800F2
:10000000580B00208D010008530600084B0500081E
:1000100051060008390400081D0F00080000000008
:10002000000000000000000000000000F1080008CF
:100030003B04000800000000CD060008B5090008D8
:10004000A7010008A7010008A7010008C5080008CB
:10005000A7010008A7010008A7010008A7010008E0
:10006000A7010008A7010008A7010008A7010008D0
:10007000A7010008A7010008A7010008A7010008C0
:10008000A7010008A7010008A7010008A7010008B0
:10009000A7010008A7010008A7010008A7010008A0
:1000A000A7010008A7010008A7010008A701000890
:1000B000A7010008A7010008090A0008A701000815
:1000C000A7010008A7010008A7010008A701000870
:1000D000A7010008850B0008A7010008010D000812
:1000E000A7010008C5070008A701000800F002F8F2
:1000F00000F03CF80AA090E8000C82448344AAF186
:100100000107DA4501D100F031F8AFF2090EBAE883
:100110000F0013F0010F18BFFB1A43F0010318473B
:1001200094140000B4140000103A24BF78C878C1B9
:10013000FAD8520724BF30C830C144BF04680C60ED
:10014000704700000023002400250026103A28BF35
:1001500078C1FBD8520728BF30C148BF0B60704739
:10016000002070471FB51FBD10B510BD00F032F95B
:100170001146FFF7F7FF00F0FAFF00F050F903B463
:10018000FFF7F2FF03BC00F0D1FE000009488047F2
:1001900009480047FEE7FEE7FEE7FEE7FEE7FEE769
:1001A000FEE7FEE7FEE7FEE704480549054A064B81
:1001B00070470000B9090008ED000008580500204C
:1001C000580B0020580700205807002070470000F7
:1001D0000FB4044910B503AA029800F0E5F810BC6A
:1001E0005DF814FB0C0000202DE9F05F8946044601
:1001F0004FF0000ADFF874B1FB44C0F820A020469D
:10020000E1688847002874D0252806D0D4E9012168
:100210009047206A401C2062F1E700265F46204696
:10022000E16888472028054607DB312D05D278197B
:1002300010F8200C08B10643F1E7B00701D526F00D
:100240000406C4F81CA00027C4F818A02A2D09D061
:10025000284600F064FE38B304EB8708303DC8F848
:10026000185019E059F8041B204604EB87029161ED
:10027000E1688847012F054618D1E069002820DA97
:1002800026F020061DE0D8F8180000EB800005EBF2
:1002900040003038C8F818002046E1688847054615
:1002A00000F03DFE0028EED1012F0AD02E2D08D1FE
:1002B0002046E16888477F1C0546022F46F020064D
:1002C000C4DBA069002803DA404246F00106A061C1
:1002D000F00701D026F010066C2D0BD0682D09D048
:1002E0004C2D39D06A2D35D0742D35D07A2D33D0A0
:1002F00016E038E0E1682F4620468847B8420546B8
:1003000009D16C2F26D04FF48060E1680643204667
:100310008847054604E06C2F1AD04FF480700643DE
:100320000DB3A5F14100192802D8203546F4006626
:100330004A462946204626604E46FFF711FF80B107
:1003400001280BD0F61D26F0070000F1080956E73A
:100350004020E4E78020D8E70020D6E706F1040932
:100360004DE7284652E7206ABDE8F09FA61300003B
:10037000704770477047704701694A1C02610878EE
:10038000704700B58FB0CDE90131002105910549D5
:100390007944CDE9031011466846FFF725FF0FB0F9
:1003A00000BD0000E5FFFFFF074B70B50D467B4425
:1003B000FFF7E7FF0446284600F008F810B14FF0B9
:1003C000FF3070BD204670BDF70C0000007B00F0D0
:1003D00080007047754600F02BF8AE460500694670
:1003E000534620F00700854618B020B5FFF7DCFE25
:1003F000BDE820404FF000064FF000074FF0000826
:100400004FF0000B21F00701AC46ACE8C009ACE8A6
:10041000C009ACE8C009ACE8C0098D46704710B50A
:100420000446AFF300802046BDE81040FFF7A7BEAA
:1004300000487047F4040020FEE770470149086057
:100440007047000014040140F0B5CC78002204F09D
:100450000F03E40601D58C7823430C784FF00F0C82
:1004600014F0FF0F4FF0010E1BD005680E880EFA36
:1004700002F42640A64210D196000CFA06F725EAAF
:10048000070703FA06F5CE783D43282E02D0482E02
:1004900002D002E0446100E00461521C082AE5D366
:1004A00005600A88FF2A1CD94468002202F1080668
:1004B0000EFA06F50E882E40AE420ED196000CFACA
:1004C00006F7BC4303FA06F7CE783C43282E00D14A
:1004D0004561CE78482E00D10561521C082AE5D32B
:1004E0004460F0BDF0B5144C002801DAE36900E087
:1004F0006368450D2E0185B2C0F30157B540C0F3C6
:100500000342032F05D0C6020AD503269640B34303
:1005100007E023F07062636823F07063636002E0B9
:10052000AB4343F0706201B12A43002801DAE26173
:10053000F0BD6260F0BD00000000014002460020F6
:1005400092680A4200D001207047FEE781070CD173
:100550006421B0FBF1F201FB120141B94FF4C87103
:10056000B0FBF1F201FB120008B10020704701203E
:100570007047000008B50121082000F0C1F84FF4D1
:100580000050ADF8000048208DF80300694602488D
:10059000FFF75AFF08BD0000000C0140F8B501212B
:1005A000042000F0ADF80120ADF800001024254E25
:1005B0008DF8034003258DF8025069463046FFF759
:1005C00043FF0220ADF8000069463046FFF73CFFCC
:1005D0000420ADF8000069463046FFF735FF0820DB
:1005E000ADF8000069463046FFF72EFFADF8004039
:1005F00069463046FFF728FF2020ADF80000694625
:100600003046FFF721FF0121102000F079F8600249
:10061000ADF800008DF803408DF8025069460A4895
:10062000FFF712FF0121082000F06AF82002ADF860
:1006300000008DF803408DF8025069460348FFF72B
:1006400003FFF8BD0008014000100140000C01400C
:10065000FEE7704730B50F23C27801780125F2B16B
:10066000144A126801F1E02102F4E062C2F5E0628E
:10067000120AC2F10404D3404278A24084781C409C
:100680001443220181F80024007800F01F018D40FE
:100690004009800000F1E020C0F8005130BD01F0B9
:1006A0001F0085404809800000F1E020C0F880511B
:1006B00030BD00000CED00E002490843024908602B
:1006C000704700000000FA050CED00E070470000E4
:1006D000044A0029D16901D0014300E08143D1617E
:1006E0007047000000100240044A0029116901D03F
:1006F000014300E081431161704700000010024097
:10070000044A0029916901D0014300E081439161CD
:100710007047000000100240044A0029D16801D04F
:10072000014300E08143D1607047000000100240A7
:1007300030B5204A5168204B11F00C0103D0042938
:1007400001D0082901D0036012E05168536801F418
:1007500070114FF0020413F4803F04EB914102D07A
:1007600053689B0301D5154B00E0134B59430160BF
:1007700051680F2303EA1111114B5C5C0168E140E1
:1007800041605468072505EA14241C5D21FA04F42D
:100790008460546805EAD4241B5DD940C160526866
:1007A000032303EA9232064B1B1F9A5CB1FBF2F162
:1007B000016130BD0010024000127A0000093D00C6
:1007C0002800002010B5022000F044F810B108A065
:1007D000FFF7FEFC4FF40030FFF730FE00F080F82A
:1007E000022000F019F8BDE8104000F079B80000D0
:1007F0002A2A2A2A2A2A2A2A2A2AD6D0B6CFCFDF7C
:10080000B7BDB0B8C4D6D6D32A2A2A2A2A2A2A2A79
:100810002A2A0D0A0000000002490A8882430A8041
:10082000704700000428004010B500F009F80146A8
:10083000024800F03FFD002010BD000060030020D2
:10084000034800880249091F098840EA01407047AF
:100850001C28004006490988C2B21140044A121FF0
:100860001288024202D009B101207047002070476F
:100870000428004030B56423B0FBF3F4B0FBF3F57B
:10088000E4B203FB1500132C01D96430C0B200EBB5
:1008900090030724B3FBF4F504FB1533084D1A4409
:1008A0000D44800715F8015C2A4492B203D1032954
:1008B00001D2521E92B2B2FBF4F004FB102030BD04
:1008C0008A15000810B50120FFF7C4FF08B1FFF733
:1008D000ABFF0120FFF7A0FFBDE81040AFF30080A1
:1008E000024801888906FCD57047000004280040B2
:1008F000704700000CB50022264800920192016862
:1009000041F4803101604FF4A063016801F40031CB
:1009100001910099491C0091019911B900999942DE
:10092000F3D10168890333D5012101911A490A687D
:1009300042F010020A600A6822F003020A600A68A4
:1009400042F002020A6041684160416841604168CA
:1009500041F480614160416821F47C11416041684B
:1009600041F4E8114160016841F080710160016863
:100970008901FCD5416821F003014160416841F0E3
:10098000020141604168C1F381010229FAD10CBD25
:1009900001920CBD00100240002002404FF0E02107
:1009A0000428086903D020F004000861704740F073
:1009B0000400FAE7704700000F4810B5016841F0E5
:1009C0000101016041680D4A1140416001680C4A13
:1009D00011400160016821F480210160416821F427
:1009E000FE0141604FF41F018160FFF783FF05495D
:1009F0004FF00060086010BD001002400000FFF8DA
:100A0000FFFFF6FE08ED00E010B50B4C012120467B
:100A100000F053F800280ED00848018841F4004146
:100A200001800121204600F03BF82046BDE810403F
:100A3000002100F038B810BD000800403E00002042
:100A40007FB50D46044601210420FFF741FEADF8B5
:100A50000440ADF800500024104DADF80640ADF84C
:100A600002406946284600F03FF801221146284618
:100A700000F02FF80121284600F015F81E208DF80F
:100A80000C008DF80D4002208DF80E0001208DF82D
:100A90000F0003A8FFF7DEFD7FBD00000008004047
:100AA000C943018270470029018802D041F0010149
:100AB00001E021F001010180704702460020138A05
:100AC00092890B4202EA010202D0002A00D00120E2
:100AD0007047002A828901D00A4300E08A4382815C
:100AE000704781847047000030B502881B4C1C4D54
:100AF000A0420DD0A8420BD0B0F1804F08D0194BC6
:100B0000984205D0184B984202D0184B984203D116
:100B100022F070034A881A43154B984206D0154BB1
:100B2000984203D022F44073CA881A4302808A880C
:100B300082850A880285A0420AD0A84208D00E4ABF
:100B4000904205D00D4A904202D00D4A904201D108
:100B5000097A01860121818230BD0000002C01400C
:100B6000003401400004004000080040000C004038
:100B700000100040001400400040014000440140CB
:100B80000048014070B5164C40F22551204600F057
:100B900033F900280ED0204600F0BCF9114AC1B24A
:100BA0001088030406D444044FF0000306D50A2934
:100BB00001D0138070BD40F400400EE00D290AD032
:100BC000C0F30D04084D401C80B229551080B0F5CB
:100BD000487FEED270BD40F48040108070BD0000B0
:100BE0000038014008000020400000202DE9F04FAF
:100BF000002403254FF001093E4F002987B0064627
:100C00004FF018084FF0040A4FF0250B494649D021
:100C100044F20800FFF774FD01210846FFF770FD5C
:100C20004020ADF810008DF812508DF81380DFF8D9
:100C3000C88004A94046FFF707FC8020ADF81000EB
:100C40008DF813A004A94046FFF7FEFB8DF814B001
:100C50008DF815508DF816508DF8179005A8FFF7F0
:100C6000F9FC01210420FFF73DFCADF808400C2001
:100C7000ADF80440ADF80A000096ADF80640ADF8B6
:100C80000C406946384600F0EFF8012240F2255149
:100C9000384600F0D0F80121384600F069F807B076
:100CA000BDE8F08F44F20400FFF72AFD4FF4007016
:100CB000ADF810008DF812508DF81380DFF83C80ED
:100CC00004A94046FFF7C0FB4FF48060ADF8100068
:100CD0008DF813A004A94046FFF7B6FB8DF814B0B9
:100CE0008DF815508DF816508DF8179005A8FFF760
:100CF000B1FCBAE700380140000C01400008014097
:100D000070B5174C40F22551204600F075F80028C8
:100D100025D0204600F0FEF8124DC4B22888000409
:100D200018D42888642811D20F4E00213046FFF7CE
:100D3000D8FE288818B901213046FFF7B4FE29886B
:100D40000A480844491C2980047003E0288840F4BC
:100D5000004028802046BDE8704000F055BB70BDC3
:100D6000004800403E000020000800402A04002007
:100D70000029818902D041F4005101E021F40051A1
:100D800081817047174910B588420AD101218C032F
:100D90002046FFF7C1FC2046BDE810400021FFF7C8
:100DA000BBBC1149884202D101214C0410E00F491B
:100DB000884202D101218C040AE00D49884202D107
:100DC0000121CC0404E00B4988420AD101210C0521
:100DD0002046FFF789FC2046BDE810400021FFF7C0
:100DE00083BC10BD00380140004400400048004072
:100DF000004C00400050004070B501F01F05012676
:100E00000024C1F3421306FA05F2012B0FD0022B86
:100E10000FD0838A4FEA11210088134206FA01F6A7
:100E200000EA060001D000B10124204670BD83898C
:100E3000F0E7038AEEE710B5C1F3421301F01F0497
:100E40000121A140012B07D0022B07D01430002A2A
:100E5000026805D00A4304E00C30F8E71030F6E7EA
:100E60008A43026010BD000030B50446008A85B098
:100E70000D464CF6FF710840E98801432182A089A4
:100E80004EF6F3110840A9882A8911436A89024362
:100E90001143A181A08A4FF6FF410840A98901436F
:100EA000A1826846FFF744FC1948844201D10398A7
:100EB00000E00298A189090400EBC00101EB0010D9
:100EC000296801D5490000E08900B0FBF1F06422F7
:100ED000B0FBF2F109010B096FF018056B4300EB51
:100EE0008300A3891D044FF0320306D503EBC00035
:100EF000B0FBF2F000F0070005E003EB0010B0FBE0
:100F0000F2F000F00F000843208105B030BD000072
:100F1000003801408088C0F308007047FEE7303891
:100F20000A2801D201207047002070477047000056
:100F30007CB5144C144E4FF40055206828B929464E
:100F40003046FFF7FBFA01280ED0206801280AD1AD
:100F500029463046FFF7F2FA002804D10BA0FFF72C
:100F600037F9002020607CBD0AA0FFF731F901208D
:100F700020600A48D0E90610CDE90010684600F06C
:100F8000FDF97CBD00000020000C0140636C6F7314
:100F9000650000006F70656E0000000064150008B9
:100FA00010B56FF00400FFF7F9FC09480949006823
:100FB000B0FBF1F00849C0B200EB40020870C2EB90
:100FC000C0104FF6FF7202EAC000488010BD00005A
:100FD0001000002000127A00040000202DE9FC47D8
:100FE00027494FF0E0274988484378610026BE61D1
:100FF000386940F001003861DFF88890224D4FF4E5
:1010000000583C69286828B941464846FFF796FAD7
:10101000012803D02868012811D026E01BA0FFF783
:10102000D7F81C48C0F8B061012028601A48D0E900
:101030000010CDE90010684600F0A0F915E0414627
:101040004846FFF77BFA80B914A0FFF7C1F81548AE
:10105000C0F88061C0F88461C0F88861C0F88C6114
:10106000C0F89061C0F894612E60E00701D0E00301
:10107000C7D5386920F001003861BE61BDE8FC8742
:1010800004000020000C0140000000206F70656E1D
:10109000000000000080214284150008636C6F731B
:1010A000650000000000214204490A885206FCD570
:1010B000024AC1B2121D1180704700000038014081
:1010C0000F4810B500220271C47801210D4B012C8C
:1010D00004D08278A02A03D0002010BDC27008E09E
:1010E0004278521C4270427802F001024270FF22A4
:1010F000827001714078814303EB811010BD0000C4
:10110000380000206A03002010B5FFF7D9FF040063
:1011100007D004A0FFF75CF86079BDE8104000F04C
:1011200063B810BD47657452656D696E640A00004E
:1011300010B54FF4A060FFF7BFFAFFF731FF4FF48F
:10114000E13400212046FFF751FD204600F0A4F9CC
:10115000FFF724FAFFF70EFABDE810404FF47A705B
:10116000FFF73CBFFFF7D0FFFFF7E2FEFAE7FFF71C
:10117000DFFFFFF7F7FF00000B4910B5094A4B7876
:101180008C7802EB83131B78A34208D94B7802EBCF
:1011900083128B781A4450708878401C00E0FF203E
:1011A000887010BD6A030020380000200D480C49EB
:1011B0004278837801EB82110978FF2299420DD1A0
:1011C000017911B1A021817070474178491C4170AB
:1011D000417801F0010141700121C17082707047B6
:1011E0006A0300203800002070B528490124072830
:1011F00035D2DFE800F03404070C131C2700C1F8D7
:1012000080412FE0C1F88041C1F884412AE0C1F853
:101210008041C1F88441C1F8884123E0C1F8804190
:10122000C1F88441C1F88841C1F88C411AE0C1F885
:101230008041C1F88441C1F88841C1F88C41C1F8AE
:1012400090410FE0C1F88041C1F88441C1F8884164
:10125000C1F88C41C1F89041C1F8944102E00CA062
:10126000FEF7B6FF0E48C0F8B0410EA0FEF7B0FF83
:1012700000244FF47A752846FFF7B0FE641C022C58
:10128000F9DBBDE8704000F0A9B800000000214281
:1012900057726F6E67206E756D6265720000000098
:1012A000008021420A48656C6C6F20416C61726D50
:1012B000210A00002DE9F043DFF8B8800E46B1FBAB
:1012C000F8F3044673B340F2B2754FF4B7774FF4B6
:1012D000B6790FE02846FFF739F938B1BB4202D39F
:1012E000A3F5B77304E06D1CADB205E0A3F26D1376
:1012F0006D1CADB24B45EDD8A58000251E4F0BE00F
:10130000A088FFF723F908B1012D2ED0785D98420F
:1013100004D81B1A6D1CADB21C2BF1D26D1CA5712B
:101320005B1CE371B6FBF8F108FB11604FF46161DF
:10133000B0FBF1F22270B0FBF1F201FB12033C2290
:10134000B3FBF2F36370B0FBF1F301FB1300B0FBEE
:10135000F2F102FB1100A070E279A179A088FFF7F9
:1013600089FA20720020BDE8F0831D2BD6D31D3BE7
:10137000D0E70000805101009615000830B5144BED
:101380001978FF2901D0012030BD124A017811706F
:10139000002105E0441855186478491C6C7089B226
:1013A00014788C42F6D8A0200B4C18702088400688
:1013B000FCD5094DFE202D1D288000F04DF8218818
:1013C0004906FCD52880FF28F7D1002030BD000059
:1013D0003D000020EA0300200048004008490020AA
:1013E000C1F8B0010749C1F88001C1F88401C1F812
:1013F0008801C1F88C01C1F89001C1F894017047CF
:10140000008021420000214230B41149FE2808D05A
:10141000FF2803D00A78012A07D016E030BCFFF776
:10142000C5BE0120087030BC704700220A703F28FA
:1014300009D88B78FF2BF6D1064B4C7803EB84133D
:1014400018708A70EFE7801CC0B230BCFFF794BE02
:10145000380000206A0300200D4B0E4A19781078DE
:10146000A02907D0FF2903D0884205D1FF2018709A
:10147000FF207047002108E00A445078FE2803D37B
:10148000801E5070FE207047491C19707047000084
:101490003D000020EA030020F0B5044687B001219A
:1014A0000820FFF72DF901218804FFF711F9294ED3
:1014B0003046FFF767FC3015ADF8100003258DF8B6
:1014C00012501820244F8DF8130004A93846FEF757
:1014D000BBFFF014ADF8100004208DF8130004A930
:1014E0003846FEF7B1FF00940024ADF808400C2008
:1014F000ADF80440ADF80A00ADF80640ADF80C4078
:1015000069463046FFF7B0FC01213046FFF730FC5A
:10151000012240F225513046FFF78DFC27208DF83F
:10152000140002208DF815008DF8165001208DF85A
:10153000170005A8FFF78EF841F61F416320FFF75B
:101540007FFA0648048000210548FFF7ACFA07B08F
:10155000F0BD000000480040000C01403E000020AB
:10156000000800400590901F010100000590200038
:101570000001000005902000000000000590901F71
:10158000000900000590901F0009000303060104F4
:101590000602050003051F1C1F1E1F1E1F1F1E1F06
:1015A0001E1F0400000800000000000000020001EF
:1015B00000001000D41500080000002040000000CA
:1015C000280100081416000840000020180B000035
:1015D00044010008000000000000000000000000BE
:1015E0000000000000A24A0400000000000000000B
:1015F00001020304060708090204060800000000AF
:101600000102030401020304060708090000FF00A9
:0416100000FF0000D7
:040000050800018D61
:00000001FF
