:020000040800F2
:10000000180B00208D010008F7060008EF05000816
:10001000F50600086D040008D51200080000000075
:10002000000000000000000000000000A90C000813
:100030006F040008000000007D0700086D0D000837
:10004000A7010008A7010008A70100083D0A000851
:10005000A7010008A7010008A7010008A7010008E0
:10006000A7010008A7010008A7010008A7010008D0
:10007000A7010008A7010008A7010008A7010008C0
:10008000A7010008A7010008A7010008A7010008B0
:10009000A7010008A7010008A7010008A7010008A0
:1000A000A7010008A7010008A7010008A701000890
:1000B000A7010008A7010008C10D0008A70100085A
:1000C000A7010008A7010008A7010008A701000870
:1000D000A70100083D0F0008A7010008B91000089B
:1000E000A7010008ED080008A701000800F002F8C9
:1000F00000F03CF80AA090E8000C82448344AAF186
:100100000107DA4501D100F031F8AFF2090EBAE883
:100110000F0013F0010F18BFFB1A43F0010318473B
:100120003816000058160000103A24BF78C878C16D
:10013000FAD8520724BF30C830C144BF04680C60ED
:10014000704700000023002400250026103A28BF35
:1001500078C1FBD8520728BF30C148BF0B60704739
:10016000002070471FB51FBD10B510BD00F032F95B
:100170001146FFF7F7FF01F04FF900F050F903B413
:10018000FFF7F2FF03BC01F0ADF80000094880471B
:1001900009480047FEE7FEE7FEE7FEE7FEE7FEE769
:1001A000FEE7FEE7FEE7FEE704480549054A064B81
:1001B00070470000710D0008ED00000818050020D0
:1001C000180B0020180700201807002070470000B7
:1001D0000FB4044910B503AA029800F0E5F810BC6A
:1001E0005DF814FB0C0000202DE9F05F8946044601
:1001F0004FF0000ADFF874B1FB44C0F820A020469D
:10020000E1688847002874D0252806D0D4E9012168
:100210009047206A401C2062F1E700265F46204696
:10022000E16888472028054607DB312D05D278197B
:1002300010F8200C08B10643F1E7B00701D526F00D
:100240000406C4F81CA00027C4F818A02A2D09D061
:10025000284601F040F838B304EB8708303DC8F871
:10026000185019E059F8041B204604EB87029161ED
:10027000E1688847012F054618D1E069002820DA97
:1002800026F020061DE0D8F8180000EB800005EBF2
:1002900040003038C8F818002046E1688847054615
:1002A00001F019F80028EED1012F0AD02E2D08D127
:1002B0002046E16888477F1C0546022F46F020064D
:1002C000C4DBA069002803DA404246F00106A061C1
:1002D000F00701D026F010066C2D0BD0682D09D048
:1002E0004C2D39D06A2D35D0742D35D07A2D33D0A0
:1002F00016E038E0E1682F4620468847B8420546B8
:1003000009D16C2F26D04FF48060E1680643204667
:100310008847054604E06C2F1AD04FF480700643DE
:100320000DB3A5F14100192802D8203546F4006626
:100330004A462946204626604E46FFF711FF80B107
:1003400001280BD0F61D26F0070000F1080956E73A
:100350004020E4E78020D8E70020D6E706F1040932
:100360004DE7284652E7206ABDE8F09F4815000097
:10037000704770477047704701694A1C02610878EE
:10038000704700B58FB0CDE90131002105910549D5
:100390007944CDE9031011466846FFF725FF0FB0F9
:1003A00000BD0000E5FFFFFF074B70B50D467B4425
:1003B000FFF7E7FF0446284600F008F810B14FF0B9
:1003C000FF3070BD204670BD0B100000007B00F0B8
:1003D00080007047754600F02BF8AE460500694670
:1003E000534620F00700854618B020B5FFF7DCFE25
:1003F000BDE820404FF000064FF000074FF0000826
:100400004FF0000B21F00701AC46ACE8C009ACE8A6
:10041000C009ACE8C009ACE8C0098D46704710B50A
:100420000446AFF300802046BDE81040FFF7A7BEAA
:1004300000487047B404002010B5012000F0D0F946
:10044000BDE81040002000F0CBB9000008B502491B
:1004500008440090008808BD006C004008B5024ABE
:1004600010440090016008BD006C0040FEE770473A
:1004700001490860704700001404014030B51A4A71
:100480008379016853B313688B431360111D0B68A4
:100490000468A3430B60017911440B68046823438B
:1004A0000B60114B083319680468A14319601C1DC7
:1004B00021680568A94321604179102905D01144BC
:1004C0000A68006802430A6030BD19680268114377
:1004D0001960216800680143216030BD0079104433
:1004E00002688A43026030BD00040140F0B5CC7858
:1004F000002204F00F03E40601D58C7823430C7826
:100500004FF00F0C14F0FF0F4FF0010E1BD00568D9
:100510000E880EFA02F42640A64210D196000CFA7C
:1005200006F725EA070703FA06F5CE783D43282E9D
:1005300002D0482E02D002E0446100E00461521C67
:10054000082AE5D305600A88FF2A1CD944680022DE
:1005500002F108060EFA06F50E882E40AE420ED1C4
:1005600096000CFA06F7BC4303FA06F7CE783C4334
:10057000282E00D14561CE78482E00D10561521C4D
:10058000082AE5D34460F0BDF0B5144C002801DA28
:10059000E36900E06368450D2E0185B2C0F30157A1
:1005A000B540C0F30342032F05D0C6020AD5032687
:1005B0009640B34307E023F07062636823F07063F2
:1005C000636002E0AB4343F0706201B12A4300284C
:1005D00001DAE261F0BD6260F0BD000000000140A0
:1005E0000246002092680A4200D001207047FEE7D0
:1005F00081070CD16421B0FBF1F201FB120141B97A
:100600004FF4C871B0FBF1F201FB120008B10020F9
:10061000704701207047000008B50121082000F054
:10062000C7F84FF40050ADF8000048208DF80300E3
:1006300069460248FFF75AFF08BD0000000C014060
:10064000F8B50121042000F0B3F80120ADF8000056
:100650001024254E8DF8034003258DF8025069467D
:100660003046FFF743FF0220ADF8000069463046F0
:10067000FFF73CFF0420ADF8000069463046FFF765
:1006800035FF0820ADF8000069463046FFF72EFF21
:10069000ADF8004069463046FFF728FF2020ADF84E
:1006A000000069463046FFF721FF0121102000F0CD
:1006B0007FF86002ADF800008DF803408DF802501D
:1006C00069460A48FFF712FF0121082000F070F880
:1006D0002002ADF800008DF803408DF80250694605
:1006E0000348FFF703FFF8BD000801400010014078
:1006F000000C0140FEE7704730B50F23C278017847
:100700000125F2B1144A126801F1E02102F4E0621D
:10071000C2F5E062120AC2F10404D3404278A2405A
:1007200084781C401443220181F80024007800F0F2
:100730001F018D404009800000F1E020C0F8005109
:1007400030BD01F01F0085404809800000F1E02025
:10075000C0F8805130BD00000CED00E002490843B4
:1007600002490860704700000000FA050CED00E047
:10077000014908627047000000000E427047000007
:10078000044A0029D16901D0014300E08143D161CD
:100790007047000000100240044A0029116901D08E
:1007A000014300E0814311617047000000100240E6
:1007B000044A0029916901D0014300E0814391611D
:1007C0007047000000100240044A0029D16801D09F
:1007D000014300E08143D1607047000000100240F7
:1007E00001490860704700004004424230B5204A89
:1007F0005168204B11F00C0103D0042901D00829C5
:1008000001D0036012E05168536801F470114FF099
:10081000020413F4803F04EB914102D053689B0320
:1008200001D5154B00E0134B5943016051680F236C
:1008300003EA1111114B5C5C0168E14041605468AE
:10084000072505EA14241C5D21FA04F48460546829
:1008500005EAD4241B5DD940C1605268032303EA32
:100860009232064B1B1F9A5CB1FBF2F1016130BD65
:100870000010024000127A0000093D00280000200C
:10088000034600205909094A01290AD002290AD041
:10089000516A03F01F02012393400B4200D0012054
:1008A00070471168F5E7116AF3E700000010024095
:1008B0000649002281F8202081F82020012802D05A
:1008C000042802D1052081F8200070470010024062
:1008D00001490860704700003C04424202490A6A2C
:1008E00002430A62704700000010024010B5022067
:1008F00000F06CF810B108A0FFF76AFC4FF400306C
:10090000FFF7B6FD00F0BCF9022000F031F8BDE8B9
:10091000104000F0B5B900002A2A2A2A2A2A2A2AD9
:100920002A2AD6D0B6CFCFDFB7BDB0B8C4D6D6D37B
:100930002A2A2A2A2A2A2A2A2A2A0D0A00000000FC
:100940007CB5DDE90645CDE9004500F009FE044629
:1009500001214FF0C050FFF713FF0120FFF708FF00
:10096000204600F05DF900F08BF900207CBD00000E
:1009700002490A8882430A80704700000428004028
:100980000248018841F010010180704704280040AE
:100990000248018821F010010180704704280040BE
:1009A00010B500F009F80146024800F075FD00207E
:1009B00010BD000060030020034800880249091FA1
:1009C000098840EA014070471C2800400649098810
:1009D000C2B21140044A121F1288024202D009B169
:1009E00001207047002070470428004030B5642380
:1009F000B0FBF3F4B0FBF3F5E4B203FB1500132CEA
:100A000001D96430C0B200EB90030724B3FBF4F5C6
:100A100004FB1533084D1A440D44800715F8015C9A
:100A20002A4492B203D1032901D2521E92B2B2FBE0
:100A3000F4F004FB102030BD2C17000810B5012085
:100A4000FFF7C4FF08B1FFF7ABFF0120FFF790FFEE
:100A5000BDE8104000F014B9044A0029118801D003
:100A6000014300E0814311807047000000280040EE
:100A70007CB5002401214FF0C050FFF781FE01201A
:100A8000FFF726FF0120FFF773FE0420FFF7DEFCCF
:100A900044F256460025B04257D0FFF7CDFC012066
:100AA000FFF706FF04E0641CE4B20A2000F03AFC01
:100AB0004120FFF7E5FE50B1FA2C0BD34FF47A74C6
:100AC0003FA0FFF785FB204600F02CFCF8E7FA2C4E
:100AD000E9D3F3E74FF48070FFF700FF0120FFF741
:100AE000F7FE00F0D5F800F0CBF801210846FFF73B
:100AF000B3FF01210220FFF7AFFF00F0C1F8FFF7BD
:100B00003FFF47F6FF7000F0ABF800F0B9F8FFF7D1
:100B10003FFF31460420FFF7A1FC2EA0FFF758FB52
:100B20003B201F24CDE90040162340F2E1761A460F
:100B30000521304600F05CF816231A4605213046A0
:100B4000CDE90045FFF7FCFE0CE001210846FFF768
:100B500083FF01210220FFF77FFF00F091F821A021
:100B6000FFF736FB03208DF8000002268DF80160A8
:100B700001248DF802408DF803406846FFF7BCFD64
:100B800029208DF800008DF801408DF802608DF865
:100B900003406846FFF7B0FD66043046FFF768FC87
:100BA0008DF8045008208DF8050000968DF8064059
:100BB0006846FFF763FCFFF7F3FE00207CBD0000F2
:100BC0006A696E677A68656E2D6572726F720D0A5A
:100BD0000000000074696D655F7365745F6F6B0D75
:100BE0000A00000074696D655F6F6B0D0A000000FC
:100BF0007CB5DDE90645CDE9004500F0B1FC0446D1
:100C000001214FF0C050FFF7BBFD0120FFF7B0FD01
:100C1000204600F015F800F033F800207CBD0000FD
:100C200000B50246FFF7ACFE0449100C0880081D11
:100C300002805DF804EBFFF7ABBE00002028004007
:100C400000B50246FFF79CFE0449100C0880081D01
:100C500002805DF804EBFFF79BBE000018280040FF
:100C600000B50246FFF78CFE0449C2F3034008803A
:100C7000081D02805DF804EBFFF78ABE08280040DB
:100C8000024801888906FCD570470000042800400E
:100C90000448018821F00801018001880907FCD57A
:100CA0007047000004280040704700000CB5002287
:100CB000264800920192016841F4803101604FF4AE
:100CC000A063016801F4003101910099491C009171
:100CD000019911B900999942F3D10168890333D57B
:100CE000012101911A490A6842F010020A600A685B
:100CF00022F003020A600A6842F002020A604168B8
:100D0000416041684160416841F4806141604168EF
:100D100021F47C114160416841F4E81141600168AF
:100D200041F08071016001688901FCD5416821F0C2
:100D300003014160416841F0020141604168C1F333
:100D400081010229FAD10CBD01920CBD00100240B4
:100D5000002002404FF0E0210428086903D020F071
:100D600004000861704740F00400FAE77047000093
:100D70000F4810B5016841F00101016041680D4A5A
:100D80001140416001680C4A11400160016821F482
:100D900080210160416821F4FE0141604FF41F0190
:100DA0008160FFF783FF05494FF00060086010BDC8
:100DB000001002400000FFF8FFFFF6FE08ED00E023
:100DC00010B50B4C0121204600F053F800280ED03E
:100DD0000848018841F4004101800121204600F0CB
:100DE0003BF82046BDE81040002100F038B810BDA7
:100DF000000800403E0000207FB50D46044601215A
:100E00000420FFF7BDFCADF80440ADF8005000240D
:100E1000104DADF80640ADF802406946284600F096
:100E20003FF801221146284600F02FF801212846FC
:100E300000F015F81E208DF80C008DF80D400220F2
:100E40008DF80E0001208DF80F0003A8FFF754FC69
:100E50007FBD000000080040C9430182704700299F
:100E6000018802D041F0010101E021F0010101807F
:100E7000704702460020138A92890B4202EA01025F
:100E800002D0002A00D001207047002A828901D0B8
:100E90000A4300E08A4382817047818470470000E2
:100EA00030B502881B4C1C4DA0420DD0A8420BD07F
:100EB000B0F1804F08D0194B984205D0184B98429A
:100EC00002D0184B984203D122F070034A881A438B
:100ED000154B984206D0154B984203D022F440732C
:100EE000CA881A4302808A8882850A880285A042BD
:100EF0000AD0A84208D00E4A904205D00D4A90422E
:100F000002D00D4A904201D1097A018601218182E5
:100F100030BD0000002C01400034014000040040BE
:100F200000080040000C0040001000400014004089
:100F300000400140004401400048014070B5164C9B
:100F400040F22551204600F033F900280ED020460B
:100F500000F0BCF9114AC1B21088030406D444045D
:100F60004FF0000306D50A2901D0138070BD40F46C
:100F700000400EE00D290AD0C0F30D04084D401CBE
:100F800080B229551080B0F5487FEED270BD40F494
:100F90008040108070BD0000003801400800002033
:100FA000400000202DE9F04F002403254FF00109F7
:100FB0003E4F002987B006464FF018084FF0040A4C
:100FC0004FF0250B494649D044F20800FFF7F0FBEB
:100FD00001210846FFF7ECFB4020ADF810008DF82A
:100FE00012508DF81380DFF8C88004A94046FFF73F
:100FF0007DFA8020ADF810008DF813A004A94046BA
:10100000FFF774FA8DF814B08DF815508DF816505E
:101010008DF8179005A8FFF76FFB01210420FFF75B
:10102000B3FAADF808400C20ADF80440ADF80A0062
:101030000096ADF80640ADF80C406946384600F021
:10104000EFF8012240F22551384600F0D0F8012196
:10105000384600F069F807B0BDE8F08F44F20400AC
:10106000FFF7A6FB4FF40070ADF810008DF812509A
:101070008DF81380DFF83C8004A94046FFF736FA6C
:101080004FF48060ADF810008DF813A004A940461D
:10109000FFF72CFA8DF814B08DF815508DF8165016
:1010A0008DF8179005A8FFF727FBBAE70038014035
:1010B000000C01400008014070B5174C40F225516A
:1010C000204600F075F8002825D0204600F0FEF8F4
:1010D000124DC4B22888000418D42888642811D27C
:1010E0000F4E00213046FFF7D8FE288818B901219D
:1010F0003046FFF7B4FE29880A480844491C298075
:10110000047003E0288840F4004028802046BDE8B1
:10111000704000F07DBA70BD004800403E000020E5
:1011200000080040EA0300200029818902D041F430
:10113000005101E021F4005181817047174910B539
:1011400088420AD101218C032046FFF73DFB20464F
:10115000BDE810400021FFF737BB1149884202D19A
:1011600001214C0410E00F49884202D101218C0476
:101170000AE00D49884202D10121CC0404E00B4968
:1011800088420AD101210C052046FFF705FB2046C5
:10119000BDE810400021FFF7FFBA10BD0038014044
:1011A0000044004000480040004C00400050004017
:1011B00070B501F01F0501260024C1F3421306FAA1
:1011C00005F2012B0FD0022B0FD0838A4FEA112199
:1011D0000088134206FA01F600EA060001D000B1C9
:1011E0000124204670BD8389F0E7038AEEE710B53D
:1011F000C1F3421301F01F040121A140012B07D0CC
:10120000022B07D01430002A026805D00A4304E0FC
:101210000C30F8E71030F6E78A43026010BD00009A
:1012200030B50446008A85B00D464CF6FF71084083
:10123000E98801432182A0894EF6F3110840A9886C
:101240002A8911436A8902431143A181A08A4FF67A
:10125000FF410840A9890143A1826846FFF7C6FA09
:101260001948844201D1039800E00298A189090439
:1012700000EBC00101EB0010296801D5490000E036
:101280008900B0FBF1F06422B0FBF2F109010B0917
:101290006FF018056B4300EB8300A3891D044FF02A
:1012A000320306D503EBC000B0FBF2F000F00700FC
:1012B00005E003EB0010B0FBF2F000F00F00084374
:1012C000208105B030BD0000003801408088C0F3A7
:1012D00008007047FEE730380A2801D20120704725
:1012E000002070477047000010B56FF00400FFF752
:1012F00031FD094809490068B0FBF1F00849C0B266
:1013000000EB40020870C2EBC0104FF6FF7202EA19
:10131000C000488010BD00001000002000127A00BC
:10132000000000202DE9F047204D4FF0E0276988AC
:10133000484378610026BE61386940F00100386199
:10134000DFF86C904FF400583C69686828B9414652
:101350004846FFF745F9012803D06868012806D000
:1013600018E01448C0F8B0610120686012E04146FE
:101370004846FFF735F968B90F48C0F88061C0F8F2
:101380008461C0F88861C0F88C61C0F89061C0F8D1
:1013900094616E60E00701D0E003D5D5386920F094
:1013A00001003861BE61BDE8F08700000000002048
:1013B000000C0140008021420000214204490A88BB
:1013C0005206FCD5024AC1B2121D118070470000BE
:1013D0000038014010B54FF4A060FFF7BFF9FFF7E8
:1013E00083FF4FF4E13401212046FFF7DBFD204667
:1013F00000F036F9FFF73CFBFFF722F9FFF70CF995
:10140000BDE810404FF47A70FFF78CBF01A0FEF7E3
:10141000DFFEFBE730000000FFF7DCFF0148FEF7CE
:10142000D7FEFBE7141400080B4910B5094A4B78A6
:101430008C7802EB83131B78A34208D94B7802EB1C
:1014400083128B781A4450708878401C00E0FF208B
:10145000887010BD6A030020380000200D480C4938
:101460004278837801EB82110978FF2299420DD1ED
:10147000017911B1A021817070474178491C4170F8
:10148000417801F0010141700121C1708270704703
:101490006A030020380000202DE9F043DFF8B8800F
:1014A0000E46B1FBF8F3044673B340F2B2754FF445
:1014B000B7774FF4B6790FE02846FFF799F838B1BF
:1014C000BB4202D3A3F5B77304E06D1CADB205E0D7
:1014D000A3F26D136D1CADB24B45EDD8A580002570
:1014E0001E4F0BE0A088FFF783F808B1012D2ED026
:1014F000785D984204D81B1A6D1CADB21C2BF1D23A
:101500006D1CA5715B1CE371B6FBF8F108FB116063
:101510004FF46161B0FBF1F22270B0FBF1F201FB1C
:1015200012033C22B3FBF2F36370B0FBF1F301FB57
:101530001300B0FBF2F102FB1100A070E279A17977
:10154000A088FFF753FA20720020BDE8F0831D2B1E
:10155000D6D31D3BD0E700008051010038170008AA
:101560002DE9F04F9A4605460023A0F2B270DDF84F
:1015700024B091468846822802D30120BDE8F08F2E
:1015800040F2B2741E4E1F4F08E02046FFF730F8BD
:1015900008B1334400E03B44641CA4B2AC42F4D331
:1015A000A8F10100C6B20024174FDFF860800EE0FA
:1015B000385D40F2A321484303EBC0132846FFF7F0
:1015C00017F810B1012C00D14344641CA4B2B442FA
:1015D000EED340F2A32109FB01F00C4903EBC0104C
:1015E00049420144CAEB4A12C2EB0A2001EB001146
:1015F000CBEB0B1001EB80000A990844BEE700001A
:101600000085E2018033E1013817000880510100B4
:1016100030B41149FE2808D0FF2803D00A78012AE7
:1016200007D016E030BCFFF719BF0120087030BCAE
:10163000704700220A703F2809D88B78FF2BF6D11B
:10164000064B4C7803EB841318708A70EFE7801C0C
:10165000C0B230BCFFF7E8BE380000206A030020AB
:10166000F0B5044687B001210820FFF7A1F8012159
:101670008804FFF785F8294E3046FFF75FFD3015E7
:10168000ADF8100003258DF812501820244F8DF866
:10169000130004A93846FEF729FFF014ADF8100036
:1016A00004208DF8130004A93846FEF71FFF0094AC
:1016B0000024ADF808400C20ADF80440ADF80A0055
:1016C000ADF80640ADF80C4069463046FFF7A8FD7E
:1016D00001213046FFF728FD012240F22551304616
:1016E000FFF785FD27208DF8140002208DF81500E6
:1016F0008DF8165001208DF8170005A8FEF7FCFFA5
:1017000041F61F416320FFF777FB06480480002164
:101710000548FFF7A4FB07B0F0BD000000480040FB
:10172000000C01403E0000200008004000030306BA
:1017300001040602050003051F1C1F1E1F1E1F1F9C
:101740001E1F1E1F04000008000000000000000211
:1017500000010000100000007817000800000020C1
:101760004000000028010008B817000840000020D1
:10177000D80A00004401000800000000000000003A
:10178000000000000000000000A24A040000000069
:10179000000000000102030406070809020406080D
:1017A0000000000001020304010203040607080907
:0817B0000000FF000000000032
:040000050800018D61
:00000001FF
